:0C095700020C000102080000020A00016E
:10088C001209471209157F041208DCD3E50D950BEC
:10089C00E50C950A50057580FE80F0D3E50D950B9F
:1008AC00E50C950A40057580FF80E0E50D648D45EB
:1008BC000C700F050BE50B7002050AE4F50CF50D39
:1008CC0080C9E50B648E450A70C1F50AF50B80BB37
:10094700758901758CFF758A9BD2A9D2AFD28C228B
:03000B00020934B3
:10093400C0E0758CFF758A9B050DE50D7002050CF2
:03094400D0E032CE
:1008DC00EF603224FB601314601914601F24037042
:1008EC0027E5A0541F4480F5A022E5A0541F44A086
:1008FC00F5A022E5A0541F44C0F5A022E5A0541F8A
:09090C0044E0F5A02253A01F22D3
:100915007F051208DCE4F5801F1208DC7580FF7F77
:0F092500061208DC7580FF0F1208DC7580FF22B8
:03000000020800F3
:0C080000787FE4F6D8FD75810D020847F2
:10080C0002088CE493A3F8E493A34003F68001F26E
:10081C0008DFF48029E493A3F85407240CC8C333ED
:10082C00C4540F4420C8834004F456800146F6DFBC
:10083C00E4800B0102040810204080900957E47EEC
:10084C00019360BCA3FF543F30E509541FFEE493B1
:10085C00A360010ECF54C025E060A840B8E493A378
:10086C00FAE493A3F8E493A3C8C582C8CAC583CAA3
:10087C00F0A3C8C582C8CAC583CADFE9DEE780BE5B
:010963000093
:00000001FF
